:020000040800F2
:1000000000000524E1100008251000082710000852
:10001000291000082B1000082D1000080000000017
:100020000000000000000000000000002F10000889
:1000300031100008000000003310000835100008DF
:100040003111000831110008311100083111000888
:100050003111000831110008311100083111000878
:100060003111000831110008311100083111000868
:100070003111000831110008311100083111000858
:100080003111000831110008311100083111000848
:100090003111000831110008311100083111000838
:1000A0003111000831110008311100083111000828
:1000B0003111000831110008311100083111000818
:1000C0003111000831110008311100083111000808
:1000D00031110008311100083111000831110008F8
:1000E0003111000831110008000000003111000832
:1000F00031110008311100083111000831110008D8
:1001000031110008311100083111000831110008C7
:1001100031110008311100083111000831110008B7
:1001200031110008311100083111000831110008A7
:100130003111000831110008311100083111000897
:1001400000000000000000000000000000000000AF
:100150003111000831110008311100083111000877
:100160003111000831110008311100083111000867
:1001700031110008311100083111000800000000A1
:100180003111000831110008311100083111000847
:100190003111000831110008311100083111000837
:1001A0003111000831110008311100080000000071
:1001B0003111000831110008311100083111000817
:1001C000311100083111000800000000000000009B
:1001D00000000000000000003111000800000000D5
:1001E000000000000000000000000000000000000F
:1001F000000000000000000031110008311100086B
:100200003111000831110008000000003111000810
:1002100031110008311100083111000831110008B6
:10022000311100080000000031110008000000003A
:1002300031110008311100080000000031110008E0
:100240003111000831110008311100083111000886
:100250003111000831110008311100083111000876
:100260003111000831110008311100083111000866
:1002700031110008311100083111000800000000A0
:100280003111000831110008311100083111000846
:1002900000000000311100083111000800000000CA
:1002A0000000000031110008311100083111000870
:1002B0003111000831110008311100083111000816
:0C02C00031110008311100083111000854
:1002CC0010B5054C237833B9044B13B10448AFF384
:1002DC0000800123237010BDFC04002400000000EA
:1002EC005841000808B5034B1BB103490348AFF351
:1002FC00008008BD000000000005002458410008E3
:10030C0080F0004002E000BF81F0004142001FBFBE
:10031C005FEA410392EA030F7FEA226C7FEA236CC7
:10032C006AD04FEA1262D2EB1363C1BFD2184140BC
:10033C0048404140B8BF5B42192B88BF704710F052
:10034C00004F40F4000020F07F4018BF404211F0F5
:10035C00004F41F4000121F07F4118BF494292EA5D
:10036C00030F3FD0A2F1010241FA03FC10EB0C0089
:10037C00C3F1200301FA03F100F0004302D5494216
:10038C0060EB4000B0F5000F13D3B0F1807F06D3C3
:10039C0040084FEA310102F10102FE2A51D2B1F1BB
:1003AC00004F40EBC25008BF20F0010040EA0300B0
:1003BC007047490040EB0000013A28BFB0F5000F30
:1003CC00EDD2B0FA80FCACF1080CB2EB0C0200FAE6
:1003DC000CF0AABF00EBC25052421843BCBFD04035
:1003EC001843704792F0000F81F4000106BF80F4AF
:1003FC0000000132013BB5E74FEA41037FEA226C72
:10040C0018BF7FEA236C21D092EA030F04D092F03C
:10041C00000F08BF0846704790EA010F1CBF002070
:10042C00704712F07F4F04D1400028BF40F00040CD
:10043C00704712F100723CBF00F50000704700F0ED
:10044C00004343F0FE4040F4000070477FEA226214
:10045C0016BF08467FEA23630146420206BF5FEAE5
:10046C00412390EA010F40F4800070474FF00003E5
:10047C0004E000BF10F0004348BF40425FEA000CAC
:10048C0008BF704743F0964301464FF000001CE054
:10049C0050EA010208BF70474FF000030AE000BFAA
:1004AC0050EA010208BF704711F0004302D54042E8
:1004BC0061EB41015FEA010C02BF8446014600205A
:1004CC0043F0B64308BFA3F18053A3F50003BCFA75
:1004DC008CF2083AA3EBC25310DB01FA02FC634422
:1004EC0000FA02FCC2F12002BCF1004F20FA02F229
:1004FC0043EB020008BF20F00100704702F120021C
:10050C0001FA02FCC2F1200250EA4C0021FA02F27C
:10051C0043EB020008BF20EADC7070474FF0FF0C81
:10052C001CEAD0521EBF1CEAD15392EA0C0F93EA7C
:10053C000C0F6FD01A4480EA010C400218BF5FEA1E
:10054C0041211ED04FF0006343EA501043EA511191
:10055C00A0FB01310CF00040B1F5000F3EBF49008B
:10056C0041EAD3715B0040EA010062F17F02FD2A8F
:10057C001DD8B3F1004F40EBC25008BF20F0010072
:10058C00704790F0000F0CF0004C08BF49024CEA89
:10059C00502040EA51207F3AC2BFD2F1FF0340EA1B
:1005AC00C250704740F400004FF00003013A5DDC8C
:1005BC0012F1190FDCBF00F000407047C2F10002CD
:1005CC00410021FA02F1C2F1200200FA02FC5FEABA
:1005DC00310040F1000053EA4C0308BF20EADC7004
:1005EC00704792F0000F00F0004C02BF400010F476
:1005FC00000F013AF9D040EA0C0093F0000F01F023
:10060C00004C02BF490011F4000F013BF9D041EA44
:10061C000C018FE70CEAD15392EA0C0F18BF93EA46
:10062C000C0F0AD030F0004C18BF31F0004CD8D170
:10063C0080EA010000F00040704790F0000F17BFF7
:10064C0090F0004F084691F0000F91F0004F14D03D
:10065C0092EA0C0F01D142020FD193EA0C0F03D195
:10066C004B0218BF084608D180EA010000F0004098
:10067C0040F0FE4040F40000704740F0FE4040F473
:10068C00400070474FF0FF0C1CEAD0521EBF1CEA12
:10069C00D15392EA0C0F93EA0C0F69D0A2EB030230
:1006AC0080EA010C49024FEA402037D04FF08053CA
:1006BC0043EA111143EA10130CF000408B4238BF8F
:1006CC005B0042F17D024FF4000C8B4224BF5B1A9D
:1006DC0040EA0C00B3EB510F24BFA3EB510340EAEB
:1006EC005C00B3EB910F24BFA3EB910340EA9C0099
:1006FC00B3EBD10F24BFA3EBD10340EADC001B0109
:10070C0018BF5FEA1C1CE0D1FD2A3FF650AF8B42AC
:10071C0040EBC25008BF20F0010070470CF0004CB9
:10072C004CEA50207F32C2BFD2F1FF0340EAC250E4
:10073C00704740F400004FF00003013A37E792F0A5
:10074C00000F00F0004C02BF400010F4000F013A03
:10075C00F9D040EA0C0093F0000F01F0004C02BFFE
:10076C00490011F4000F013BF9D041EA0C0195E767
:10077C000CEAD15392EA0C0F08D142027FF47DAF00
:10078C0093EA0C0F7FF470AF084676E793EA0C0FF0
:10079C0004D14B023FF44CAF08466EE730F0004CEE
:1007AC0018BF31F0004CCAD130F000427FF45CAF7E
:1007BC0031F000437FF43CAF5FE700BF42000ED244
:1007CC00B2F1FE4F0BD34FF09E03B3EB126209D480
:1007DC004FEA002343F0004323FA02F070474FF036
:1007EC000000704712F1610F01D1420202D14FF0AB
:1007FC00FF3070474FF00000704700BF53B94AB943
:10080C00002908BF00281CBF4FF0FF314FF0FF300C
:10081C0000F074B9ADF1080C6DE904CE00F006F8E7
:10082C00DDF804E0DDE9022304B070472DE9F04760
:10083C00089E0D4604468846002B4DD18A429446AC
:10084C0068D9B2FA82F252B101FA02F3C2F1200174
:10085C0020FA01F10CFA02FC41EA030894404FEA39
:10086C001C45210CB8FBF5FE1FFA8CF705FB1E830B
:10087C0041EA03430EFB07F199420BD91CEB03032E
:10088C000EF1FF3080F01E81994240F21B81AEF1D7
:10089C00020E63445B1AA4B2B3FBF5F005FB1033F4
:1008AC0044EA034400FB07F7A7420AD91CEB0404F3
:1008BC0000F1FF3380F00881A74240F205816444C7
:1008CC000238E41B40EA0E4000211EB1D440002344
:1008DC00C6E90043BDE8F0878B4208D9002E00F032
:1008EC00EE800021C6E900050846BDE8F087B3FAA2
:1008FC0083F100294AD1AB4202D3824200F2F98043
:10090C00841A65EB030301209846002EE2D0C6E959
:10091C000048DFE702B9FFDEB2FA82F2002A40F0AB
:10092C009180A1EB0C054FEA1C471FFA8CFE0121AC
:10093C00B5FBF7F307FB1350250C45EA00450EFBFE
:10094C0003F0A84208D91CEB050503F1FF3802D2CD
:10095C00A84200F2CB8043462D1AA4B2B5FBF7F0A7
:10096C0007FB105544EA05440EFB00FEA64508D9CA
:10097C001CEB040400F1FF3502D2A64500F2BB804B
:10098C002846A4EB0E0440EA03409EE7C1F1200781
:10099C008B4022FA07FC4CEA030C20FA07F405FA08
:1009AC0001F31C43FD404FEA1C4900FA01F3B5FB6F
:1009BC00F9F8200C1FFA8CFE09FB185540EA054586
:1009CC0008FB0EF0A84202FA01F20BD91CEB05054C
:1009DC0008F1FF3A80F08880A84240F28580A8F1A7
:1009EC00020865442D1AA4B2B5FBF9F009FB1055A9
:1009FC0044EA054500FB0EFEAE4508D91CEB050587
:100A0C0000F1FF346CD2AE456AD90238654440EA35
:100A1C000840A0FB0294A5EB0E05A542C846A646CD
:100A2C0056D353D05EB1B3EB080265EB0E0505FA55
:100A3C0007F722FA01F3CD401F43C6E900750021E8
:100A4C00BDE8F087C2F1200320FA03F10CFA02FC96
:100A5C0025FA03F395400D434FEA1C471FFA8CFE11
:100A6C00B3FBF7F107FB11302B0C43EA004301FBFE
:100A7C000EF0984204FA02F408D91CEB030301F1BE
:100A8C00FF382FD298422DD9023963441B1AADB2CC
:100A9C00B3FBF7F007FB103345EA034500FB0EF3FD
:100AAC00AB4208D91CEB050500F1FF3816D2AB425E
:100ABC0014D902386544ED1A40EA014138E7314651
:100ACC00304607E78646E5E61846FAE64B45A9D2D6
:100ADC00B9EB020864EB0C0E0138A3E74046EAE7D9
:100AEC00204694E74146D1E7D0467BE7023B65447C
:100AFC0032E7084609E76444023842E7704700BF12
:100B0C002DE9F0418CB000240794089409940A94C0
:100B1C000B94594BD3F8E02042F00402C3F8E020C8
:100B2C00D3F8E02002F004020092009AD3F8E020FF
:100B3C0042F08002C3F8E020D3F8E02002F08002FB
:100B4C000192019AD3F8E02042F00102C3F8E020B0
:100B5C00D3F8E02002F001020292029AD3F8E020CE
:100B6C0042F00202C3F8E020D3F8E02002F00202C7
:100B7C000392039AD3F8E02042F00802C3F8E02075
:100B8C00D3F8E02002F008020492049AD3F8E02093
:100B9C0042F04002C3F8E020D3F8E02002F040021B
:100BAC000592059AD3F8E02042F01002C3F8E02039
:100BBC00D3F8E03003F010030693069B2F4F224628
:100BCC0044F20101384600F04BFFDFF8B4802246B6
:100BDC004FF48061404600F043FF2A4E224602212A
:100BEC00304600F03DFF4FF40053079308940994EE
:100BFC0007A9254800F03CFE44F2010307930125A8
:100C0C00089509940A9407A9384600F031FE4FF470
:100C1C0080670797089509940A9407A9404600F045
:100C2C0027FE80230793194B0893099407A91848AA
:100C3C0000F01EFE4FF40073079308940994A8F576
:100C4C00406807A9404600F013FE07970227089753
:100C5C0009940A940A230B9307A9404600F008FE56
:100C6C000797089509940A9407A9304600F000FEEE
:100C7C000CB0BDE8F08100BF0044025800040258DB
:100C8C00000C025800100258000802580000111104
:100C9C000018025872B6FEE710B51448144B0360E6
:100CAC00144B00221A7080215970E1219970DA706E
:100CBC001A715A714360012303720F4BC3600F4BBF
:100CCC00036140F2F453436100F036FD58B90C4C0B
:100CDC0034220021204603F077F9212323604FF4BE
:100CEC004033636110BDFFF7D5FF00BF54050024EE
:100CFC0000800240180500249C0400243C040024BD
:100D0C002005002408B51548154B03604FF4E1335A
:100D1C00436000238360C36003610C2242618361E2
:100D2C00C36103624362836203F067F870B9002108
:100D3C000A4803F0DAF858B90021084803F0FAF829
:100D4C0040B9064803F0B2F830B908BDFFF7A2FF6E
:100D5C00FFF7A0FFFFF79EFFFFF79CFFDC050024C9
:100D6C000048004000B59DB04C22002109A803F0BA
:100D7C002BF92022002101A803F026F9022000F013
:100D8C0075FE00230093214B9A6922F440429A612C
:100D9C009B6903F440430093009B1C4B9B6913F429
:100DAC00005FFAD0212309934FF4A0230A93012169
:100DBC000F910222129213920423149340F21310F7
:100DCC001590169117931892199300231A931B934D
:100DDC0009A800F075FEA8B93F23019303210291E5
:100DEC0000230393082304934023059306934FF4A5
:100DFC0080620792089301A801F026FA20B91DB071
:100E0C005DF804FBFFF746FFFFF744FF004802586C
:100E1C0008B500F0B1F9FFF7A5FFFFF771FEFFF77A
:100E2C003BFFFFF76FFFFEE782B0074BD3F8F420D0
:100E3C0042F00202C3F8F420D3F8F43003F00203BA
:100E4C000193019B02B070470044025870B58CB0FE
:100E5C0000230793089309930A930B930268434B5F
:100E6C009A4201D00CB070BD414BD3F8D82042F45B
:100E7C000042C3F8D820D3F8D82002F400420092E4
:100E8C00009AD3F8D82042F48032C3F8D820D3F893
:100E9C00D82002F480320192019AD3F8D82042F47F
:100EAC000032C3F8D820D3F8D82002F400320292D2
:100EBC00029AD3F8E02042F00402C3F8E020D3F801
:100ECC00E02002F004020392039AD3F8E02042F0EF
:100EDC000102C3F8E020D3F8E02002F001020492F2
:100EEC00049AD3F8E02042F00202C3F8E020D3F8D1
:100EFC00E02002F002020592059AD3F8E02042F0BD
:100F0C004002C3F8E020D3F8E03003F0400306932E
:100F1C00069B32230793022608960B250B9507A9EF
:100F2C00144800F0A5FC8623079308960024099426
:100F3C000A940B9507A9104800F09AFC4FF4005343
:100F4C000793089609940A940B9507A90B4800F08F
:100F5C008FFC4FF420530793089609940A940B9531
:100F6C0007A9074800F084FC7CE700BF0080024022
:100F7C0000440258000802580000025800040258AD
:100F8C000018025810B5B4B0044600212F913091CE
:100F9C00319132913391B42202A803F015F82268F2
:100FAC001A4B9A4201D034B010BD0223029302A80E
:100FBC0001F0E6FB38BB164BD3F8E82042F4802254
:100FCC00C3F8E820D3F8E82002F480220092009ABB
:100FDC00D3F8E02042F00802C3F8E020D3F8E03068
:100FEC0003F008030193019B4FF440732F930223EA
:100FFC003093002331933293072333932FA9054861
:10100C0000F036FCCFE7FFF745FED4E70048004080
:10101C0000440258000C0258FEE7FEE7FEE7FEE72C
:10102C00FEE770477047704708B500F0D3F808BD6D
:10103C00204B1B6803F00F03062B06D81D4A1368C0
:10104C0023F00F0343F0070313601B4B1A6842F0A5
:10105C0001021A6000221A611968184A0A401A60C3
:10106C00144B1B6813F0080F06D0124A136823F0B8
:10107C000F0343F0070313600F4B00229A61DA61F0
:10108C001A620F4999620F49D9620F4919635A6361
:10109C009963DA6319645A64196821F48021196020
:1010AC001A660A4B43F2D2021A60094B4FF00062E7
:1010BC009A60704700200052004402587FEDF6EA17
:1010CC00000202020000FF018002010100400052F8
:1010DC0000ED00E0DFF834D0FFF7AAFF0C480D4913
:1010EC000D4A002302E0D458C4500433C4188C4277
:1010FC00F9D30A4A0A4C002301E013600432A242DD
:10110C00FBD302F03DFFFFF783FE70470000052480
:10111C00000000243C040024C0410008FC0400240E
:10112C0074060024FEE70000104B1B780BB901205D
:10113C00704710B504464FF47A70B0FBF3F30C4AC9
:10114C001068B0FBF3F000F0A9F868B90F2C01D9C6
:10115C0001200AE0002221464FF0FF3000F068F831
:10116C00044B1C60002000E0012010BD080000248E
:10117C00000000240C00002410B5032000F046F8F9
:10118C0000F056FF0F498B69C3F303230E4AD35C5F
:10119C0003F01F03D8408B6903F00F03D35C03F0FB
:1011AC001F0320FA03F3094A1360094B186000204F
:1011BC00FFF7BAFF10B10124204610BD0446FFF71B
:1011CC0033FEF9E700440258704100080400002483
:1011DC0000000024034B1B78034A11680B44136076
:1011EC00704700BF080000246C060024014B1868EF
:1011FC00704700BF6C060024034A536823F4600355
:10120C0003435360704700BF000400580649CB6885
:10121C0023F4E0631B041B0C000200F4E0600343A6
:10122C00024A1A43CA60704700ED00E00000FA055C
:10123C0000B5174BDB68C3F30223C3F1070CBCF1F9
:10124C00040F28BF4FF0040C03F1040EBEF1060F7F
:10125C0014D9033B4FF0FF3E0EFA0CFC21EA0C01B3
:10126C0099400EFA03F322EA03031943002807DB23
:10127C000901C9B2074B19545DF804FB0023E9E7D7
:10128C0000F00F000901C9B2034B1954F4E700BF79
:10129C0000ED00E000E400E014ED00E00138B0F1F6
:1012AC00807F0BD24FF0E0235861054AF02182F881
:1012BC0023100020986107221A61704701207047A3
:1012CC0000ED00E030B48B680A6813430A7943EAF6
:1012DC00C2630A7B43EAC2534A7B43EA82538A7B4A
:1012EC0043EA4253CA7B43EA02530A7C002A40F089
:1012FC00B0804FF4002213434A7C002A40F0AB80AC
:10130C004FF4003213438A7C43EA02434A69134385
:10131C008A6913430A7F43EA02334A7F43EAC223B2
:10132C008A7F002A40F099804FF480621343CA7F71
:10133C0043EA422391F82020002A40F090804FF499
:10134C00807213434A6A134391F8282043EA02132C
:10135C00CA6A13430468226822F07F4222F47B029B
:10136C0022F4FE4222F07C0213432360CA6B91F8F4
:10137C0038301B0643EA426391F8302043EA82433B
:10138C0091F8312043EA424391F83220002A68D187
:10139C004FF4803213434A6B13430468626822F0A3
:1013AC007C5222F4EF2222F4FF6222F00702134354
:1013BC00636091F840204B6C43EA02220468E568B4
:1013CC002B4B2B401343E36091F854200B6D43EAF5
:1013DC00420391F84C20002A45D1802213438A6C99
:1013EC0043EA02430468226F22F0F2021204120C48
:1013FC001343236791F8563091F8552043EA420283
:10140C000468D4F8903023F003031343C4F89030ED
:10141C000268D2F8003D23F072038C6D2343C2F8AE
:10142C00003DCB6D91F86020FAB94022134391F83E
:10143C00612043EA021391F8622043EAC203016877
:10144C00D1F8302D22F07B021343C1F8303D30BC73
:10145C00704700224FE7002254E7002266E7002283
:10146C006FE7002296E70022B8E70022DEE700BF14
:10147C00F0FEFFFF10B4026802F580521468234B93
:10148C0023400C68234313600A798B6843EA0233C8
:10149C000A7B43EAC232036803F5805CDCF8044043
:1014AC001B4B23401343CCF8043091F80DC00B6A4E
:1014BC0043EA0C4C026802F58052D2F80041154BFD
:1014CC00234043EA0C03C2F800310B690A7D43EA5E
:1014DC0002134A7F43EA0232036803F5805CDCF8AE
:1014EC0004410D4B23401343CCF804310A7F896926
:1014FC0041EAC271026802F58052D2F80801074B2A
:10150C0003400B43C2F8083110BC7047FD87FFFF46
:10151C00FE2FFFFF00C0FEFFEFEFC0FFFFFFC07FFD
:10152C0070B5A2B0064601258DF8335000241294F4
:10153C008DF841408DF843408DF828508DF8565069
:10154C008DF832508DF84C408DF884504FF4005388
:10155C000F938DF85C4018948DF885408DF886407B
:10156C004FF4C36316938DF830400B948DF83550BF
:10157C008DF836408DF840401D941B9414948DF8D2
:10158C0064408DF87A408DF84250202320938DF8DA
:10159C0044508DF855404FF0405309934FF480431D
:1015AC000E938DF8314002231F938DF878408DF8FF
:1015BC0079408DF854408DF834501A948DF8705051
:1015CC0009A9FFF77FFE8DF80450029500948DF861
:1015DC001C408DF80D408DF80C404FF40013069311
:1015EC008DF8144004938DF81D404FF40673089346
:1015FC0069463046FFF73EFF22B070BD10B40022A2
:10160C0010E0C46802EB42034FEAC30C04EBC303C3
:10161C00002144F80C1059609960D960911D40F874
:10162C0021300132032AECD900238362036803F5CD
:10163C0080530322C3F82C21C268036803F580533E
:10164C00C3F81421C268036803F58053C3F8202142
:10165C0010BC704710B4002114E0046901EB410385
:10166C004FEAC30C04EBC303002244F80C205A606D
:10167C009A60DA601A615A6101F1100200EB820281
:10168C00536001310329E8D9002343658365C365A1
:10169C0043660366036803F580530322C3F83021C5
:1016AC000269036803F58053C3F81C21036903F135
:1016BC004802036803F58053C3F8282110BC704717
:1016CC0038B505460368D3F8004224F4706400F082
:1016DC0005FF114B0344114A934205D244F40074A4
:1016EC002B68C3F8004238BD0D4B03440D4A93429E
:1016FC0002D844F44074F3E70B4B03440B4A934277
:10170C00EED30B4B03440B4A934202D844F480743F
:10171C00E6E744F48064E3E700D3CEFEC0E1E400E6
:10172C0040F1E9FD3F787D0100796CFC005A6202C2
:10173C00001F0AFA7FF0FA02002800F0908030B502
:10174C0083B00446C36E8BB32323E366454BD3F8B7
:10175C00F42042F00202C3F8F420D3F8F43003F082
:10176C0002030193019B237A1BBB0020FFF744FD6E
:10177C00236803F580531A6842F001021A60FFF7E0
:10178C0035FD0546236803F580531B6813F0010FE4
:10179C0014D0FFF72BFD401BB0F5FA7FF2D90423D0
:1017AC006367E023E366012003B030BDFFF74EFB17
:1017BC00CAE74FF40000FFF71FFDD9E72046FFF7FB
:1017CC007FFF00F08BFE284BA3FB00239B0C2268B1
:1017DC00013BC2F8DC302046FFF7A2FE226802F57E
:1017EC008052D2F8003123F4E01343F40023C2F802
:1017FC000031626912F0030F04D001206067E0230E
:10180C00E366D1E7216801F58051D1F80801174B47
:10181C00034043EA4203C1F808312046FFF7EEFECD
:10182C002046FFF717FF626851791379226843EA63
:10183C000123C2F800336268D17893781B0443EA21
:10184C000163517843EA0123117822680B43C2F8F3
:10185C000433002060671023E3662367A4E70120AC
:10186C00704700BF0044025883DE1B430180FFFF1A
:10187C00F0B583B0002340E0092400E00024B4401C
:10188C0044EA0C040235734E46F825404FF0B04440
:10189C00D4F88050D44325EA02064F6817F4803FF1
:1018AC0001D042EA05064FF0B045C5F88060D5F886
:1018BC00845004EA05064F6817F4003F01D042EA51
:1018CC0005064FF0B045C5F884602D6804EA05069E
:1018DC004F6817F4801F01D042EA05064FF0B0455F
:1018EC002E606D682C404E6816F4001F01D042EA41
:1018FC0005044FF0B042546001330A6832FA03F425
:10190C0000F0A5804FF0010C0CFA03FC1CEA02025B
:10191C00F2D04C68651E112C18BF012D01D9122C68
:10192C0013D185685E000324B44025EA0405CC6815
:10193C00B4402C438460446824EA0C0C4C68C4F317
:10194C0000149C4044EA0C044460C6684FEA430C03
:10195C00032505FA0CF5EC4326EA050E8D6805FA0D
:10196C000CF545EA0E05C5604D68122D18BF022D09
:10197C0012D1DE08083650F8267003F007054FEA3E
:10198C00850E0F2505FA0EF527EA05070D6905FAF0
:10199C000EF53D4340F82650056825404C6804F090
:1019AC00030404FA0CF42C4304604C6814F0805FBC
:1019BC00A2D0294CD4F8F45045F00205C4F8F450E8
:1019CC00D4F8F44004F002040194019C9D08AE1C70
:1019DC00204C54F8267003F00304A6000F24B440E6
:1019EC0027EA040C1D4CA0423FF448AF04F5806478
:1019FC00A0421ED004F58064A0421CD004F5806483
:101A0C00A0421AD004F58064A04218D004F580647A
:101A1C00A04216D004F58064A04214D004F5806472
:101A2C00A04212D004F50064A0423FF425AF0A2472
:101A3C0025E7012423E7022421E703241FE70424DC
:101A4C001DE705241BE7062419E7072417E703B055
:101A5C00F0BD00BF000400580044025800000258BA
:101A6C000AB181617047090481617047134BDB68CF
:101A7C0013F0040F07D1114BDB6803F0070383420B
:101A8C001AD00120704710B50C4AD36823F0070315
:101A9C001843D060FFF7AAFB0446084B5B6813F4AD
:101AAC00005F07D1FFF7A2FB001BB0F57A7FF4D9DA
:101ABC00012000E0002010BD0020704700480258B3
:101ACC00002800F0958238B50446036813F0010F26
:101ADC0025D09E4A136903F03803926A102B15D057
:101AEC00182B0FD06368B3F5803F3DD0002B51D13C
:101AFC00964B1A6822F480321A601A6822F48022FB
:101B0C001A6036E002F00302022AEBD18F4B1B68FD
:101B1C0013F4003F03D06368002B00F0738223683A
:101B2C0013F0020F70D0894A1369926A13F03803CC
:101B3C0059D0182B54D0E368002B00F092808349C5
:101B4C000A6822F0190213430B60FFF74FFB05469E
:101B5C007E4B1B6813F0040F7AD1FFF747FB401B39
:101B6C000228F5D9032054E2784A136843F48033F1
:101B7C00136063682BB3FFF739FB0546734B1B6887
:101B8C0013F4003FCBD1FFF731FB401B6428F5D990
:101B9C0003203EE2B3F5A02F09D06C4B1A6822F457
:101BAC0080321A601A6822F480221A60E1E7674BCF
:101BBC001A6842F480221A601A6842F480321A6061
:101BCC00D7E7FFF713FB0546604B1B6813F4003F88
:101BDC00A5D0FFF70BFB401B6428F5D9032018E2B6
:101BEC0012F0030FA7D1594B1B6813F0040F03D04D
:101BFC00E368002B00F00882544A536823F0FE433C
:101C0C00216943EA01635360236813F0100F51D02C
:101C1C004E4A136903F03803926A082B39D0182BFB
:101C2C0033D0E369002B68D0484A136843F0800333
:101C3C001360FFF7DBFA0546444B1B6813F4807FF7
:101C4C0052D1FFF7D3FA401B0228F5D90320E0E16B
:101C5C003E4A536823F0FE43216943EA0163536013
:101C6C00D2E73A4A136823F001031360FFF7BEFA78
:101C7C000546364B1B6813F0040FC5D0FFF7B6FAB8
:101C8C00401B0228F5D90320C3E102F00302012A0C
:101C9C00C7D12E4B1B6813F4807F03D0E369802BD4
:101CAC0040F0B481294AD36823F07C53216A43EA7B
:101CBC000163D360236813F0080F49D0636983B3C1
:101CCC00224A536F43F001035367FFF78FFA05461F
:101CDC001E4B5B6F13F0020F3AD1FFF787FA401BD4
:101CEC000228F5D9032094E1184AD36823F07C53D9
:101CFC00216A43EA0163D360DCE7144A136823F0DA
:101D0C0080031360FFF772FA0546104B1B6813F43F
:101D1C00807FCFD0FFF76AFA401B0228F5D9032049
:101D2C0077E10A4A536F23F001035367FFF75EFA1A
:101D3C000546064B5B6F13F0020F09D0FFF756FAFE
:101D4C00401B0228F5D9032063E100BF0044025870
:101D5C00236813F0200F29D0A3699BB1A54A1368FF
:101D6C0043F480531360FFF741FA0546A14B1B68FF
:101D7C0013F4005F1AD1FFF739FA401B0228F5D98A
:101D8C00032046E19B4A136823F480531360FFF74A
:101D9C002DFA0546974B1B6813F4005F06D0FFF72E
:101DAC0025FA401B0228F5D9032032E1236813F0F1
:101DBC00040F21D1636A002B00F02A818D4A12692D
:101DCC0002F03802182A00F0EA80022B75D0894AFA
:101DDC00136823F080731360FFF708FA0446854BF1
:101DEC001B6813F0007F00F0D880FFF7FFF9001B91
:101DFC000228F4D903200CE17F4A136843F4807362
:101E0C001360FFF7F3F905467B4B1B6813F4807FD7
:101E1C0006D1FFF7EBF9401B6428F5D90320F8E055
:101E2C00A368012B0AD00BBB724B1A6F22F0010274
:101E3C001A671A6F22F004021A6704E06D4A136FD6
:101E4C0043F001031367A36833B3FFF7CFF90546DB
:101E5C00684B1B6F13F0020FACD1FFF7C7F9401B97
:101E6C0041F288339842F3D90320D2E0052B09D0F4
:101E7C00604B1A6F22F001021A671A6F22F00402EB
:101E8C001A67E0E75B4B1A6F42F004021A671A6F8D
:101E9C0042F001021A67D6E7FFF7A8F90546554B41
:101EAC001B6F13F0020F85D0FFF7A0F9401B41F216
:101EBC0088339842F3D90320ABE04E4A136823F0E1
:101ECC0080731360FFF792F905464A4B1B6813F0B9
:101EDC00007F06D0FFF78AF9401B0228F5D90320B2
:101EEC0097E0444B996A454A0A40A16AE06A41EA84
:101EFC0000110A439A62226B013AC2F30802616B29
:101F0C000139490289B20A43A16B0139090401F470
:101F1C00FE010A43E16B0139090601F0FE410A4357
:101F2C001A63DA6A22F00102DA62596B344A0A4007
:101F3C00A16C42EAC1025A63DA6A22F00C02216CEB
:101F4C000A43DA62DA6A22F00202616C0A43DA624C
:101F5C00DA6A42F48032DA62DA6A42F40032DA6225
:101F6C00DA6A42F48022DA62DA6A42F00102DA6258
:101F7C001A6842F080721A60FFF738F904461D4B5C
:101F8C001B6813F0007F06D1FFF730F9001B022805
:101F9C00F5D903203DE000203BE0002039E0154955
:101FAC008A6A086B012B35D002F00303A16A8B42BD
:101FBC0032D1C2F30512E36A9A422FD1C0F3080260
:101FCC00236B013B9A422BD1C0F34622636B013B3E
:101FDC009A4227D1C0F30642A36B013B9A4223D10C
:101FEC00C0F30660E36B013B98421FD1002010E068
:101FFC000120704700440258004802580CFCFFFFB7
:10200C000700FFFF012004E0012002E0012000E0B6
:10201C00002038BD0120FCE70120FAE70120F8E799
:10202C000120F6E70120F4E70120F2E70120F0E7B8
:10203C00F8B57E4B1B6903F03803102B00F0F280CF
:10204C00182B10D013B17A4C2046F8BD774B1B6877
:10205C0013F0200F00F0E880744B1868C0F3C10037
:10206C00744CC440F0E7714B9D6A05F003059C6A03
:10207C00C4F30514D86A00F001005B6BC3F3CC0306
:10208C0003FB00F0FEF7F2F90646002CDCD0012D24
:10209C0076D0022D00F0A4800DB32046FEF7E6F9B1
:1020AC0001466548FEF7EEFA0446604B186BC0F328
:1020BC000800FEF7DBF905464FF064513046FEF799
:1020CC002DFA01462846FEF721F94FF07E51FEF716
:1020DC001DF901462046FEF721FA044671E0534BE8
:1020EC001B6813F0200F29D0504F3B68C3F3C1037A
:1020FC005048D840FEF7BAF905462046FEF7B6F927
:10210C0001462846FEF7BEFA0446386BC0F30800B9
:10211C00FEF7ACF905464FF064513046FEF7FEF978
:10212C0001462846FEF7F2F84FF07E51FEF7EEF826
:10213C0001462046FEF7F2F9044642E02046FEF73F
:10214C0095F901463D48FEF79DFA0446374B186B4E
:10215C00C0F30800FEF78AF905464FF0645130468B
:10216C00FEF7DCF901462846FEF7D0F84FF07E5119
:10217C00FEF7CCF801462046FEF7D0F9044620E0E5
:10218C002046FEF773F901462B48FEF77BFA04460E
:10219C00264B186BC0F30800FEF768F905464FF0A4
:1021AC0064513046FEF7BAF901462846FEF7AEF800
:1021BC004FF07E51FEF7AAF801462046FEF7AEF925
:1021CC0004461A4B1B6BC3F34623581CFEF74EF9FF
:1021DC0001462046FEF756FAFEF7F0FA044633E7BE
:1021EC002046FEF743F901461548FEF74BFA044624
:1021FC000E4B186BC0F30800FEF738F905464FF08C
:10220C0064513046FEF78AF901462846FEF77EF8FF
:10221C004FF07E51FEF77AF801462046FEF77EF924
:10222C000446CEE7074C0FE7024C0DE7004402587A
:10223C0000093D000090D0030024744A0024744C23
:10224C000024F44A00127A00002800F0328170B5A4
:10225C000D4604469B4B1B6803F00F038B420BD2BD
:10226C00984A136823F00F030B431360136803F0B1
:10227C000F038B4240F01F81236813F0040F0CD026
:10228C002269914B9B6903F070039A4205D98E49E0
:10229C008B6923F070031A438A61236813F0080FCB
:1022AC000CD06269884BDB6903F070039A4205D944
:1022BC008549CB6923F070031A43CA61236813F074
:1022CC00100F0CD0A269804BDB6903F4E0639A42D7
:1022DC0005D97D49CB6923F4E0631A43CA612368AD
:1022EC0013F0200F0CD0E269774B1B6A03F07003DC
:1022FC009A4205D974490B6A23F070031A430A6297
:10230C00236813F0020F0CD0E2686F4B9B6903F04B
:10231C000F039A4205D96C498B6923F00F031A43BA
:10232C008A61236813F0010F41D0674A936923F443
:10233C007063A1680B4393616368022B0AD0032B73
:10234C0027D0012B2CD0604A126812F0040F06D152
:10235C000120ADE0126812F4003F00F0AE805A4943
:10236C000A6922F0070213430B61FEF73FFF064692
:10237C00554B1B6903F038036268B3EBC20F16D0E0
:10238C00FEF734FF801B41F288339842F0D90320CA
:10239C008EE04D4A126812F0007FE0D1012087E0F8
:1023AC00494A126812F4807FD9D1012080E0236859
:1023BC0013F0020F0CD0E268434B9B6903F00F0340
:1023CC009A4205D240498B6923F00F031A438A6164
:1023DC003C4B1B6803F00F03AB420AD9394A136814
:1023EC0023F00F032B431360136803F00F03AB426E
:1023FC0065D1236813F0040F0CD02269324B9B6912
:10240C0003F070039A4205D22F498B6923F07003B5
:10241C001A438A61236813F0080F0CD062692A4BA7
:10242C00DB6903F070039A4205D22749CB6923F08C
:10243C0070031A43CA61236813F0100F0CD0A26901
:10244C00214BDB6903F4E0639A4205D21E49CB6948
:10245C0023F4E0631A43CA61236813F0200F0CD0F5
:10246C00E269194B1B6A03F070039A4205D21649B4
:10247C000B6A23F070031A430A62FFF7D9FD124965
:10248C008B69C3F30323114AD35C03F01F03D840B9
:10249C008B6903F00F03D35C03F01F0320FA03F3E3
:1024AC000B4A13600B4B18600B4B1868FEF73CFE85
:1024BC0070BD012070470120FAE70120F8E70120E8
:1024CC00F6E700BF0020005200440258704100089B
:1024DC0004000024000000240C00002408B5FFF7C1
:1024EC00A7FD0B4A9369C3F303230A49CB5C03F0A2
:1024FC001F0320FA03F3926902F00F02885C00F0CC
:10250C001F0023FA00F0044A1060044A136008BD4F
:10251C00004402587041000804000024000000240C
:10252C0008B5FFF7DBFF054BDB69C3F30213044A65
:10253C00D35C03F01F03D84008BD00BF0044025811
:10254C007041000808B5FFF7C9FF054BDB69C3F301
:10255C000223044AD35C03F01F03D84008BD00BF1C
:10256C000044025870410008404B9B6A03F003037F
:10257C00032B79D070B505460E463C4A136823F000
:10258C0080631360FEF732FE0446384B1B6813F071
:10259C00006F06D0FEF72AFE031B022BF5D9032091
:1025AC0070BD324B9A6A22F47C32296842EA0132BD
:1025BC009A626A68013AC2F30802A96801394902B1
:1025CC0089B20A43E9680139090401F4FE010A439E
:1025DC0029690139090601F0FE410A439A63DA6A56
:1025EC0022F0C00269690A43DA62DA6A22F0200238
:1025FC00A9690A43DA62DA6A22F01002DA62D96B4C
:10260C001B4A0A40E96942EAC102DA63DA6A42F01B
:10261C001002DA62C6B91A46DB6A43F40023D362AD
:10262C00124A136843F080631360FEF7DFFD044623
:10263C000E4B1B6813F0006F14D1FEF7D7FD001B77
:10264C000228F5D90320ABE7012E05D0074AD36A3F
:10265C0043F40013D362E3E7044AD36A43F48013D0
:10266C00D362DDE700209BE701207047004402584D
:10267C000700FFFF404B9B6A03F00303032B79D049
:10268C0070B505460E463C4A136823F08053136020
:10269C00FEF7ACFD0446384B1B6813F0005F06D008
:1026AC00FEF7A4FD031B022BF5D9032070BD324BA2
:1026BC009A6A22F07C72296842EA01529A626A682C
:1026CC00013AC2F30802A9680139490289B20A43E6
:1026DC00E9680139090401F4FE010A432969013949
:1026EC00090601F0FE410A431A64DA6A22F44062D8
:1026FC0069690A43DA62DA6A22F40072A9690A4348
:10270C00DA62DA6A22F48072DA62596C1B4A0A4085
:10271C00E96942EAC1025A64DA6A42F48072DA6206
:10272C00C6B91A46DB6A43F48003D362124A1368B3
:10273C0043F080531360FEF759FD04460E4B1B68A3
:10274C0013F0005F14D1FEF751FD001B0228F5D9E0
:10275C000320ABE7012E05D0074AD36A43F0807300
:10276C00D362E3E7044AD36A43F40003D362DDE7A0
:10277C0000209BE701207047004402580700FFFF30
:10278C00F8B50446036813F0006F30D0036EB3F550
:10279C00001F26D00ED8EBB1B3F5801F07D1022154
:1027AC000430FFF7E1FE054645B12E4621E0012637
:1027BC0035461EE0B3F5401F09D100259D4A136D27
:1027CC0023F44013216E0B431365002611E0012600
:1027DC0035460EE0974AD36A43F40033D3620025A2
:1027EC00ECE702212430FFF745FF0546DCE7002625
:1027FC003546236813F4807F26D0636D042B1FD8D5
:10280C00DFE803F00311170808008A4AD36A43F47F
:10281C000033D362BDB9874A136D23F00703616D92
:10282C000B43136510E00021201DFFF79DFE0546AC
:10283C00F0E7002104F12400FFF71CFF0546E9E74F
:10284C000126354600E02E46236813F4806F21D014
:10285C00D4F8A030B3F5800F3DD00CD8ABB3B3F5A2
:10286C00001F05D10021201DFFF77EFE054608E064
:10287C00012635460EE0B3F5000F02D0B3F5200F5C
:10288C001DD17DBB6B4A936D23F46003D4F8A0106B
:10289C000B439365236813F4006F38D0D4F8A4303D
:1028AC00B3F1007F59D022D8002B50D0B3F1807FE8
:1028BC001AD10021201DFFF757FE05461DE0B3F588
:1028CC00C00FDED001263546E4E75A4AD36A43F4FA
:1028DC000033D362D5E7002104F12400FFF7CAFED0
:1028EC000546CEE72E46D5E7012635460FE0B3F177
:1028FC00806F02D0B3F1A06F23D1002D34D14D4A9B
:10290C00936D23F0E063D4F8A4100B439365236814
:10291C0013F0007F31D0A36C202B41D029D833B1D8
:10292C00102B23D1434AD36A43F40033D362002DD6
:10293C003CD1404AD36C23F03003A16C0B43D364DD
:10294C001BE0B3F1407FD8D001263546DFE7394A8A
:10295C00D36A43F40033D362CFE7002104F124009F
:10296C00FFF788FE0546C8E72E46D0E70126354618
:10297C0003E0302BDBD001263546236813F4805F4F
:10298C0039D0A36DB3F5005F2DD014D82BB3B3F5AC
:10299C00805F0DD10021201DFFF7E6FD054610E0FC
:1029AC000221201DFFF7E0FD0546C0E72E46E4E7B7
:1029BC00012635461FE0B3F5405F02D0B3F5804FDA
:1029CC0008D1BDB91B4A136D23F4E043A16D0B4331
:1029DC00136510E0012635460DE0164AD36A43F420
:1029EC000033D362EDE7002104F12400FFF742FE2F
:1029FC000546E6E72E46236813F4005F27D0E36D07
:102A0C00B3F5003F41D017D83BB1B3F5803F0ED1A1
:102A1C000121201DFFF7A8FD0546002D3CD1054ADC
:102A2C00136D23F4E023E16D0B4313650FE00126D6
:102A3C0035460CE000440258B3F5802FEDD0B3F5C9
:102A4C00A02FEAD0B3F5403FE7D0012635462368E6
:102A5C0013F4804F30D0D4F8A830B3F1005F44D0D9
:102A6C001FD83BB1B3F1805F18D10121201DFFF7B6
:102A7C007BFD0546002D3FD18E4A936D23F0E0433C
:102A8C00D4F8A8100B43936516E0012104F124003F
:102A9C00FFF7F0FD0546C0E72E46D8E70126354680
:102AAC000AE0B3F1804FE5D0B3F1A04FE2D0B3F11F
:102ABC00405FDFD001263546236813F4004F09D060
:102ACC00A36EB3F1805F19D0B3F1005F24D0D3B102
:102ADC0001263546236813F0807F32D0636C032BBC
:102AEC0059D8DFE803F026215226012104F12400F5
:102AFC00FFF7C0FD0546BDE72E46DDE76D4AD36AFC
:102B0C0043F40033D3626DB96A4A136D23F040531A
:102B1C00A16E0B431365DDE70121201DFFF724FD9A
:102B2C000546F0E72E46D5E7624AD36A43F40033F4
:102B3C00D3629DBB5F4AD36C23F00303616C0B43E0
:102B4C00D364236813F4800F2AD1236813F0010F88
:102B5C0000F0A180636F282B00F29B80DFE803F06C
:102B6C0089999999999999998499999999999999EE
:102B7C0092999999999999998999999999999999D0
:102B8C00899999999999999989000221201DFFF7A2
:102B9C00EBFC0546CDE701263546D2E72E46D0E7BD
:102BAC00454A136843F480731360FEF71FFB074616
:102BBC00414B1B6813F4807F05D1FEF717FBC01B3C
:102BCC006428F5D90325002D4AD13A4B1B6FD4F854
:102BDC00AC20534013F4407F0CD0364B1A6F22F4C8
:102BEC004072196F41F480311967196F21F48031EB
:102BFC0019671A67D4F8AC30B3F5807F15D08DBB4C
:102C0C00D4F8AC3003F44072B2F5407F1ED0294AA0
:102C1C00136923F47C53136126490B6FD4F8AC2051
:102C2C00C2F30B0213430B678FE7FEF7DFFA07467D
:102C3C00204B1B6F13F0020FE1D1FEF7D7FAC01B2C
:102C4C0041F288339842F3D90325D8E71948026931
:102C5C0022F47C52194901EA131313430361DBE795
:102C6C002E4672E72E4670E70121201DFFF77CFCF3
:102C7C000546E5B90F4A536D23F03803616F0B43DA
:102C8C00536508E0012104F12400FFF7F3FC05462D
:102C9C00EFE701263546236813F0020F1DD0236F92
:102CAC00052B2ED8DFE803F0110C261111112E463E
:102CBC00F1E700BF0044025800480258CFFFFF0064
:102CCC000121201DFFF750FC0546EDB9A44A536DB8
:102CDC0023F00703216F0B435365236813F0040F94
:102CEC0022D0D4F88C30052B43D8DFE803F0140F36
:102CFC003B141414012104F12400FFF7BBFC05461E
:102D0C00E3E701263546E8E72E46E6E70121201DDC
:102D1C00FFF72AFC05467DBB914A936D23F0070310
:102D2C00D4F88C100B439365236813F0200F33D029
:102D3C00D4F88830B3F1005F4CD022D83BB1B3F15A
:102D4C00805F1BD10021201DFFF70EFC0546002DD6
:102D5C0047D1834A536D23F0E043D4F888100B43DA
:102D6C00536519E0012104F12400FFF783FC0546AB
:102D7C00D1E701263546D7E72E46D5E7012635465D
:102D8C000AE0B3F1804FE2D0B3F1A04FDFD0B3F142
:102D9C00405FDCD001263546236813F0400F30D05D
:102DAC00D4F89430B3F5006F4BD01FD83BB1B3F5CA
:102DBC00806F18D10021201DFFF7D6FB0546002D92
:102DCC0046D1674A936D23F4E053D4F894100B4327
:102DDC00936516E0022104F12400FFF74BFC054635
:102DEC00B5E72E46D8E7012635460AE0B3F5805FF5
:102DFC00E5D0B3F5A05FE2D0B3F5406FDFD001268C
:102E0C003546236813F0800F32D0D4F89830B3F5E0
:102E1C00804F00F09C8020D83BB1B3F5005F19D1F6
:102E2C000021201DFFF7A0FB0546002D40F09680E9
:102E3C004B4A936D23F46043D4F898100B4393657D
:102E4C0016E0022104F12400FFF714FC0546B6E756
:102E5C002E46D6E7012635460AE0B3F5004FE4D0FE
:102E6C00B3F5204FE1D0B3F5C04FDED00126354687
:102E7C00236813F0080F0AD0E36FB3F5805F71D0AD
:102E8C00374A536D23F44053E16F0B43536523686A
:102E9C0013F0100F0CD0D4F89030B3F5807F6AD0BB
:102EAC002F4A936D23F44073D4F890100B43936521
:102EBC00236813F4002F0BD0D4F89C30B3F5803F6B
:102ECC0071D0B3F5003F64D0002B5DD001263546A0
:102EDC00236813F4802F0CD0D4F88030B3F5001F86
:102EEC0079D0B3F5401F6CD0B3F5801F64D00126A8
:102EFC003546236813F4803F07D0E36C002B73D066
:102F0C00B3F5803F7ED001263546236813F0005F71
:102F1C0040F08080236813F4003F00F08880A36F9A
:102F2C00B3F5807F00F0BC807ED9B3F5007F03D071
:102F3C00B3F5407F40F0B280002D40F0B780084AD6
:102F4C00536D23F44073A16F0B4353656FE0022163
:102F5C0004F12400FFF78EFB054666E72E4687E753
:102F6C0000440258022104F12400FFF783FB0028DF
:102F7C0086D0012684E7022104F12400FFF77AFBB6
:102F8C0000288DD001268BE70021201DFFF7ECFADD
:102F9C0005467DB94A4A936D23F44033D4F89C100E
:102FAC000B43936594E7022104F12400FFF762FBC5
:102FBC000546EEE72E468BE7414AD36A43F40033CD
:102FCC00D3627DB93E4A536D23F44013D4F880107C
:102FDC000B4353658DE7012104F12400FFF74AFBF5
:102FEC000546EEE72E4684E7354AD36A43F40033B0
:102FFC00D3626DB9324AD36C23F48033E16C0B434A
:10300C00D36482E70221201DFFF7AEFA0546F0E7F4
:10301C002E467AE7022104F12400FFF72BFB00284F
:10302C003FF478AF012675E7002B85D00126236885
:10303C0013F4801F06D0224A136D23F00043E16E77
:10304C000B431365236813F4001F06D01C4A136D41
:10305C0023F08073616E0B431365236813F0804F6C
:10306C0009D0174B1A6922F400421A611A69D4F874
:10307C00B0100A431A612368002B19DB236813F480
:10308C00000F07D00E4A536D23F44003D4F884107C
:10309C000B43536506B101263046F8BD0126C6E741
:1030AC00074AD36A43F40033D36245E72E46BEE7A2
:1030BC00034AD36C23F04053216D0B43D364DDE7FB
:1030CC000044025808B5FFF709FA054B1B6AC3F315
:1030DC000213044AD35C03F01F03D84008BD00BFA1
:1030EC0000440258704100082DE9F0410446864B1B
:1030FC009D6A9E6AC6F30536D86AC0F30010DB6B76
:10310C00C3F3CC0303FB00F0FDF7B0F9002E00F085
:10311C00F58005F003050746012D79D0022D00F04E
:10312C00CB800DB33046FDF7A1F901467748FDF78A
:10313C00A9FA0546744B986BC0F30800FDF796F995
:10314C0006464FF064513846FDF7E8F90146304623
:10315C00FDF7DCF84FF07E51FDF7D8F80146284614
:10316C00FDF7DCF9054674E0674B1B6813F0200F84
:10317C002CD0DFF89481D8F80030C3F3C103644835
:10318C00D840FDF773F905463046FDF76FF9014657
:10319C002846FDF777FA0546D8F83800C0F3080042
:1031AC00FDF764F906464FF064513846FDF7B6F961
:1031BC0001463046FDF7AAF84FF07E51FDF7A6F810
:1031CC0001462846FDF7AAF9054642E03046FDF7D0
:1031DC004DF901464F48FDF755FA05464A4B986B99
:1031EC00C0F30800FDF742F906464FF0645138462B
:1031FC00FDF794F901463046FDF788F84FF07E5103
:10320C00FDF784F801462846FDF788F9054620E0CD
:10321C003046FDF72BF901463C48FDF733FA0546DD
:10322C00394B986BC0F30800FDF720F906464FF0B8
:10323C0064513846FDF772F901463046FDF766F8E1
:10324C004FF07E51FDF762F801462846FDF766F90E
:10325C0005462D4EB06BC0F34620FDF707F94FF035
:10326C007E51FDF753F801462846FDF70BFAFDF7A2
:10327C00A5FA2060B06BC0F30640FDF7F7F84FF0ED
:10328C007E51FDF743F801462846FDF7FBF9FDF7A3
:10329C0095FA6060B06BC0F30660FDF7E7F84FF08D
:1032AC007E51FDF733F801462846FDF7EBF9FDF7A3
:1032BC0085FAA060BDE8F0813046FDF7D7F80146ED
:1032CC001548FDF7DFF905460F4B986BC0F3080066
:1032DC00FDF7CCF806464FF064513846FDF71EF961
:1032EC0001463046FDF712F84FF07E51FDF70EF80F
:1032FC0001462846FDF712F90546AAE7002323608C
:10330C006360A360D6E700BF004402580024744AEF
:10331C000090D0030024744C0024F44A2DE9F041B1
:10332C000446864B9D6A9E6AC6F30556D86AC0F35E
:10333C0000205B6CC3F3CC0303FB00F0FDF796F8A5
:10334C00002E00F0F58005F003050746012D79D01D
:10335C00022D00F0CB800DB33046FDF787F8014607
:10336C007748FDF78FF90546744B186CC0F30800CD
:10337C00FDF77CF806464FF064513846FDF7CEF861
:10338C0001463046FCF7C2FF4FF07E51FCF7BEFF02
:10339C0001462846FDF7C2F8054674E0674B1B68EA
:1033AC0013F0200F2CD0DFF89481D8F80030C3F341
:1033BC00C1036448D840FDF759F805463046FDF77F
:1033CC0055F801462846FDF75DF90546D8F840004A
:1033DC00C0F30800FDF74AF806464FF06451384632
:1033EC00FDF79CF801463046FCF790FF4FF07E51FC
:1033FC00FCF78CFF01462846FDF790F8054642E0A5
:10340C003046FDF733F801464F48FDF73BF90546CA
:10341C004A4B186CC0F30800FDF728F806464FF02D
:10342C0064513846FDF77AF801463046FCF76EFFDA
:10343C004FF07E51FCF76AFF01462846FDF76EF807
:10344C00054620E03046FDF711F801463C48FDF7F3
:10345C0019F90546394B186CC0F30800FDF706F84E
:10346C0006464FF064513846FDF758F80146304691
:10347C00FCF74CFF4FF07E51FCF748FF0146284605
:10348C00FDF74CF805462D4E306CC0F34620FCF78A
:10349C00EDFF4FF07E51FCF739FF01462846FDF752
:1034AC00F1F8FDF78BF92060306CC0F30640FCF7A7
:1034BC00DDFF4FF07E51FCF729FF01462846FDF752
:1034CC00E1F8FDF77BF96060306CC0F30660FCF747
:1034DC00CDFF4FF07E51FCF719FF01462846FDF752
:1034EC00D1F8FDF76BF9A060BDE8F0813046FCF730
:1034FC00BDFF01461548FDF7C5F805460F4B186C86
:10350C00C0F30800FCF7B2FF06464FF06451384692
:10351C00FDF704F801463046FCF7F8FE4FF07E51FB
:10352C00FCF7F4FE01462846FCF7F8FF0546AAE72F
:10353C00002323606360A360D6E700BF00440258F9
:10354C000024744A0090D0030024744C0024F44AE4
:10355C0070B586B0044601688368026913434269FA
:10356C001343C26913430868904A024013430B602B
:10357C002268536823F44053E1680B435360A169FC
:10358C0022688B4B9A4201D0236A19439068894B6D
:10359C0003400B4393602268D36A23F00F03616AE4
:1035AC000B43D3622268844B9A4229D0834B9A42B4
:1035BC0000F09480824B9A4200F0AA80814B9A4290
:1035CC0000F0C080804B9A4200F0D6807F4B9A422C
:1035DC0000F008817E4B9A4200F02D817D4B9A427F
:1035EC0000F040817C4B9A4200F053817B4B9A4215
:1035FC0000F078816E4B9A4200F09D81802333E07D
:10360C00774B5B6D03F03803282B65D8DFE813F09C
:10361C0029006400640064006400640064006400B9
:10362C00AB01640064006400640064006400640026
:10363C002B00640064006400640064006400640097
:10364C005E00640064006400640064006400640054
:10365C006000640064006400640064006400640042
:10366C006200012300E0082351498A4200F0948152
:10367C00E069B0F5004F00F00A82202B00F2628264
:10368C00202B00F2AC82DFE813F079027F02AA0251
:10369C00AA028202AA02AA02AA028702AA02AA0209
:1036AC00AA02AA02AA02AA02AA028C02AA02AA02CC
:1036BC00AA02AA02AA02AA02AA02AA02AA02AA029E
:1036CC00AA02AA02AA02AA02AA0298021023CBE713
:1036DC002023C9E74023C7E78023C5E7404B5B6D38
:1036EC0003F00703052B11D8DFE813F006003F01A8
:1036FC0008000A000C000E000023B5E70823B3E70E
:10370C001023B1E72023AFE74023ADE78023ABE7DD
:10371C00334B5B6D03F00703052B11D8DFE813F077
:10372C000600270108000A000C000E0000239BE78E
:10373C00082399E7102397E7202395E7402393E785
:10374C00802391E7264B5B6D03F00703052B11D803
:10375C00DFE813F006000F0108000A000C000E0051
:10376C00002381E708237FE710237DE720237BE7F5
:10377C00402379E7802377E7194B5B6D03F0070350
:10378C00052B11D8DFE813F00600F70008000A003B
:10379C000C000E00002367E7082365E7102363E79E
:1037AC00202361E740235FE780235DE7F369FFCFC8
:1037BC00000C0058FFF4FF110010014000440040C1
:1037CC0000480040004C00400050004000140140F4
:1037DC0000780040007C004000180140001C0140B3
:1037EC0000440258694B5B6D03F03803282B20D83A
:1037FC00DFE803F0151F1F1F1F1F1F1FC31F1F1FF5
:10380C001F1F1F1F171F1F1F1F1F1F1F191F1F1FCA
:10381C001F1F1F1F1B1F1F1F1F1F1F1F1D000123EB
:10382C0022E7082320E710231EE720231CE7402370
:10383C001AE7802318E7554B5B6D03F00703052B44
:10384C000ED8DFE803F0039C0507090B00230BE7F8
:10385C00082309E7102307E7202305E7402303E7A4
:10386C00802301E7494B5B6D03F00703052B0ED852
:10387C00DFE803F003870507090B0023F4E60823B0
:10388C00F2E61023F0E62023EEE64023ECE680235C
:10389C00EAE63E4B5B6D03F03803282B20D8DFE8BB
:1038AC0003F0151F1F1F1F1F1F1F721F1F1F1F1F1E
:1038BC001F1F171F1F1F1F1F1F1F191F1F1F1F1F1A
:1038CC001F1F1B1F1F1F1F1F1F1F1D000123CBE6C8
:1038DC000823C9E61023C7E62023C5E64023C3E628
:1038EC008023C1E6294B5B6D03F03803282B20D8CD
:1038FC00DFE803F0151F1F1F1F1F1F1F4E1F1F1F69
:10390C001F1F1F1F171F1F1F1F1F1F1F191F1F1FC9
:10391C001F1F1F1F1B1F1F1F1F1F1F1F1D000123EA
:10392C00A2E60823A0E610239EE620239CE6402373
:10393C009AE6802398E603F50E339B6D03F007039C
:10394C00052B0ED8DFE803F003260507090B02232D
:10395C008AE6082388E6102386E6202384E64023A3
:10396C0082E6802380E604237EE604237CE604239F
:10397C007AE6042378E6042376E6042374E604232B
:10398C0072E6042370E604236EE600BF004402587E
:10399C00042369E6042367E6202B27D8022BC0F00A
:1039AC001081023B1E2B00F20E81DFE813F0500059
:1039BC000C0156000C010C010C015B000C010C01FC
:1039CC000C010C010C010C010C0160000C010C0130
:1039DC000C010C010C010C010C010C010C010C0173
:1039EC000C010C010C010C010C016C00402B2CD1B6
:1039FC004FF40040626A804B33F81220B0FBF2F3B4
:103A0C00656805EB4501994200F2DF80B3EB053F99
:103A1C0000F2DD80002633463146FCF7EFFE09024A
:103A2C0041EA106100026B08C0182A46334641F186
:103A3C000001FCF7E3FEA0F54072704B9A4200F2D5
:103A4C00C8802368D8603046CAE00120C8E0FFF780
:103A5C0039FB0028CED10020C2E003A8FFF744FBBD
:103A6C000498F6E76846FFF759FC0198F1E7644BB8
:103A7C001B6813F0200F08D0614B1B68C3F3C10304
:103A8C006048D840E5E76048B4E75E48B2E7202BD1
:103A9C0015D8202B00F29F80DFE803F031379D9D75
:103AAC003A9D9D9D3F9D9D9D9D9D9D9D449D9D9D54
:103ABC009D9D9D9D9D9D9D9D9D9D9D9D5000402BE3
:103ACC001BD1626A4C4B33F81230B0FBF3F06268D6
:103ADC00530803EB4000B0FBF2F080B2A0F11002EF
:103AEC004FF6EF739A4278D820F00F03C0F34200E0
:103AFC0018432368D860002072E0012070E0FEF7C4
:103B0C000FFD0028DDD100206AE0FEF71BFDF8E771
:103B1C0003A8FFF7E9FA0498F3E76846FFF7FEFB02
:103B2C000198EEE7364B1B6813F0200F08D0344B8E
:103B3C001B68C3F3C1033348D840E2E73248C0E7FF
:103B4C003048BEE7402B17D14FF40040626A2A4B35
:103B5C0033F81230B0FBF3F0636800EB5300B0FBAA
:103B6C00F3F080B2A0F110024FF6EF739A4241D8F5
:103B7C002368D860002033E0012031E0FEF7D0FC50
:103B8C000028E3D100202BE0FEF7DCFCF8E703A8CB
:103B9C00FFF7AAFA0498F3E76846FFF7BFFB019812
:103BAC00EEE7174B1B6813F0200F08D0144B1B6863
:103BBC00C3F3C1031348D840E2E71348C6E71148E2
:103BCC00C4E701200CE001200AE0012008E00120FC
:103BDC0006E0012004E0012002E0012000E00120C9
:103BEC000123A4F86A30A4F86830002323676367C4
:103BFC0006B070BD0120F3E780410008FFFC0F0008
:103C0C00004402580090D00300093D00836A13F071
:103C1C00010F06D00268536823F40033C16A0B43CA
:103C2C005360836A13F0020F06D00268536823F4C2
:103C3C008033016B0B435360836A13F0040F06D07F
:103C4C000268536823F48023416B0B435360836AEF
:103C5C0013F0080F06D00268536823F40043816BFD
:103C6C000B435360836A13F0100F06D002689368FD
:103C7C0023F48053C16B0B439360836A13F0200FC2
:103C8C0006D00268936823F40053016C0B439360D5
:103C9C00836A13F0400F0AD00268536823F4801330
:103CAC00416C0B435360436CB3F5801F0BD0836A9C
:103CBC0013F0800F06D00268536823F40023C16C04
:103CCC000B43536070470268536823F4C003816C44
:103CDC000B435360EBE72DE9F84305460F461646B8
:103CEC009946DDF820802C68E46937EA04030CBFA0
:103CFC004FF0010C4FF0000CB44541D1B8F1FF3F2F
:103D0C00F1D0FDF773FAA0EB0900404524D8B8F1C7
:103D1C00000F21D02B681A6812F0040FE3D0DA6977
:103D2C0012F4006FDFD04FF400621A622A68136835
:103D3C0023F4D07313602A68936823F00103936013
:103D4C002023C5F88430C5F88830C5F88C300023A2
:103D5C0085F88030032014E02A68136823F4D073AC
:103D6C0013602A68936823F0010393602023C5F83D
:103D7C008430C5F88830002385F88030032000E0BB
:103D8C000020BDE8F88330B583B004460023C0F8AA
:103D9C008C30FDF72BFA05462268126812F0080FDA
:103DAC000FD123681B6813F0040F18D12023C4F81B
:103DBC008430C4F888300020E06684F8800003B0BA
:103DCC0030BD6FF07E430093034600224FF4001188
:103DDC002046FFF780FF0028E3D00320EFE76FF0C9
:103DEC007E4300932B4600224FF480012046FFF7C0
:103DFC0072FF0028DAD00320E1E778B310B504464F
:103E0C00D0F884300BB32423C4F8843022681368B0
:103E1C0023F0010313602046FFF79AFB012813D00F
:103E2C00A36ABBB92268536823F490435360226899
:103E3C00936823F02A0393602268136843F001030C
:103E4C0013602046FFF79FFF10BD80F88030FDF710
:103E5C0099F8D8E72046FFF7D9FEE3E70120704731
:103E6C00436E2BB90123A0F86A30A0F86830704774
:103E7C0030B403689A68C2F342629968490F094DDD
:103E8C006B5C1B01084C615C93FBF1F3A0F86A308E
:103E9C00AB5C1B01A25C93FBF2F3A0F8683030BC66
:103EAC00704700BFA04100089841000890F880308E
:103EBC00012B18D0012380F880302423C0F88430E3
:103ECC0003681A68196821F00101196022F0005288
:103EDC000023436601680A602022C0F8842080F821
:103EEC008030184670470220704738B590F8803003
:103EFC00012B1DD00446012380F880302423C0F808
:103F0C00843003681D681A6822F001021A60026886
:103F1C00936823F0604319439160FFF7A1FF236876
:103F2C001D602023C4F88430002084F8800038BD44
:103F3C000220FCE738B590F88030012B1DD00446E8
:103F4C00012380F880302423C0F8843003681D6876
:103F5C001A6822F001021A600268936823F0606309
:103F6C0019439160FFF77CFF23681D602023C4F880
:103F7C008430002084F8800038BD0220FCE700006B
:103F8C0070B50D4E0D4D761BB61006D0002455F8AD
:103F9C00043B01349847A642F9D1094E094D761BD2
:103FAC0000F0D4F8B61006D0002455F8043B0134C8
:103FBC009847A642F9D170BDB4410008B44100083D
:103FCC00BC410008B4410008830730B548D0541EEA
:103FDC00002A3FD0CAB2034601E0013C3AD303F8B1
:103FEC00012B9D07F9D1032C2DD9CDB245EA05251E
:103FFC000F2C45EA054536D9A4F1100222F00F0C1E
:10400C0003F1200EE6444FEA121C03F1100242E9C0
:10401C00045542E9025510327245F8D10CF10102F7
:10402C0014F00C0F03EB021204F00F0C13D0ACF1D4
:10403C00040323F003030433134442F8045B934258
:10404C00FBD10CF003042CB1CAB21C4403F8012BB5
:10405C009C42FBD130BD64461346002CF4D1F9E7E9
:10406C0003461446BFE71A46A446E0E7024B13B1D9
:10407C00024800F005B870470000000099400008A5
:10408C00002301461A46184600F01AB838B5084BFA
:10409C00084D5B1B9C1007D0043B1D44013C55F89C
:1040AC0004399847002CF9D1BDE8384000F054B8D9
:1040BC00C0410008BC410008704700BF704700BFFA
:1040CC002DE9F047DFF87CA00646DAF800009846A8
:1040DC000F469146FFF7F0FF1B4B1B68D3F8484186
:1040EC0024B365681F2D26DC5EB96B1C0235DAF82B
:1040FC000000636044F82570FFF7E0FF0020BDE886
:10410C00F08704EB85010123C1F88890D4F888214D
:10411C00AB401A43022EC4F88821C1F80881E4D1BF
:10412C00D4F88C211343C4F88C31DEE703F5A67464
:10413C00C3F84841D5E7DAF80000FFF7BFFF4FF0AE
:10414C00FF30DCE738040024A8410008F8B500BFB4
:10415C00F8BC08BC9E467047F8B500BFF8BC08BC5C
:04416C009E467047B4
:10417000000000000102030401020304060708090D
:10418000010002000400060008000A000C001000F4
:104190002000400080000001080402040801010121
:0C41A000010101030701000010000024D1
:0841AC008CC6FF7F010000003A
:0841B40079400008F102000847
:0441BC00CD02000828
:1041C0000090D0030090D003010000001000000018
:1041D00000000000FC02002464030024CC0300243F
:1041E00000000000000000000000000000000000CF
:1041F00000000000000000000000000000000000BF
:1042000000000000000000000000000000000000AE
:10421000000000000000000000000000000000009E
:10422000000000000000000000000000000000008E
:10423000000000000000000000000000000000007E
:10424000000000000000000000000000000000006E
:10425000000000000000000000000000000000005E
:10426000000000000000000000000000000000004E
:10427000000000000000000001000000000000003D
:104280000E33CDAB34126DE6ECDE05000B00000002
:10429000000000000000000000000000000000001E
:1042A000000000000000000000000000000000000E
:1042B00000000000000000000000000000000000FE
:1042C00000000000000000000000000000000000EE
:0C45F00000000000000000007006002425
:1045FC0000000000000000000000000000000000AF
:10460C00000000000000000000000000000000009E
:10461C00000000000000000000000000000000008E
:10462C00000000000000000000000000000000007E
:10463C00000000000000000000000000000000006E
:10464C00000000000000000000000000000000005E
:10465C00000000000000000000000000000000004E
:10466C00000000000000000000000000000000003E
:10467C00000000000000000000000000000000002E
:10468C00000000000000000000000000000000001E
:10469C00000000000000000000000000000000000E
:1046AC0000000000000000000000000000000000FE
:04000005080010E1FE
:00000001FF
